{
  "_format": "hh-sol-artifact-1",
  "contractName": "ERC20Token",
  "sourceName": "contracts/ERC20Token.sol",
  "abi": [
    {
      "inputs": [
        {
          "internalType": "string",
          "name": "_name",
          "type": "string"
        },
        {
          "internalType": "string",
          "name": "_symbol",
          "type": "string"
        },
        {
          "internalType": "uint256",
          "name": "_initialSupply",
          "type": "uint256"
        }
      ],
      "stateMutability": "nonpayable",
      "type": "constructor"
    },
    {
      "anonymous": false,
      "inputs": [
        {
          "indexed": false,
          "internalType": "address",
          "name": "owner",
          "type": "address"
        },
        {
          "indexed": false,
          "internalType": "address",
          "name": "spender",
          "type": "address"
        },
        {
          "indexed": false,
          "internalType": "uint256",
          "name": "amount",
          "type": "uint256"
        }
      ],
      "name": "Approval",
      "type": "event"
    },
    {
      "anonymous": false,
      "inputs": [
        {
          "indexed": false,
          "internalType": "address",
          "name": "to",
          "type": "address"
        },
        {
          "indexed": false,
          "internalType": "uint256",
          "name": "amount",
          "type": "uint256"
        }
      ],
      "name": "Mint",
      "type": "event"
    },
    {
      "anonymous": false,
      "inputs": [
        {
          "indexed": true,
          "internalType": "address",
          "name": "from",
          "type": "address"
        },
        {
          "indexed": true,
          "internalType": "address",
          "name": "to",
          "type": "address"
        },
        {
          "indexed": false,
          "internalType": "uint256",
          "name": "value",
          "type": "uint256"
        }
      ],
      "name": "Transfer",
      "type": "event"
    },
    {
      "inputs": [
        {
          "internalType": "address",
          "name": "",
          "type": "address"
        },
        {
          "internalType": "address",
          "name": "",
          "type": "address"
        }
      ],
      "name": "allowances",
      "outputs": [
        {
          "internalType": "uint256",
          "name": "",
          "type": "uint256"
        }
      ],
      "stateMutability": "view",
      "type": "function"
    },
    {
      "inputs": [
        {
          "internalType": "address",
          "name": "spender",
          "type": "address"
        },
        {
          "internalType": "uint256",
          "name": "amount",
          "type": "uint256"
        }
      ],
      "name": "approve",
      "outputs": [
        {
          "internalType": "bool",
          "name": "",
          "type": "bool"
        }
      ],
      "stateMutability": "nonpayable",
      "type": "function"
    },
    {
      "inputs": [
        {
          "internalType": "address",
          "name": "",
          "type": "address"
        }
      ],
      "name": "balanceOf",
      "outputs": [
        {
          "internalType": "uint256",
          "name": "",
          "type": "uint256"
        }
      ],
      "stateMutability": "view",
      "type": "function"
    },
    {
      "inputs": [],
      "name": "decimals",
      "outputs": [
        {
          "internalType": "uint8",
          "name": "",
          "type": "uint8"
        }
      ],
      "stateMutability": "view",
      "type": "function"
    },
    {
      "inputs": [
        {
          "internalType": "address",
          "name": "to",
          "type": "address"
        },
        {
          "internalType": "uint256",
          "name": "amount",
          "type": "uint256"
        }
      ],
      "name": "mint",
      "outputs": [],
      "stateMutability": "nonpayable",
      "type": "function"
    },
    {
      "inputs": [],
      "name": "name",
      "outputs": [
        {
          "internalType": "string",
          "name": "",
          "type": "string"
        }
      ],
      "stateMutability": "view",
      "type": "function"
    },
    {
      "inputs": [],
      "name": "owner",
      "outputs": [
        {
          "internalType": "address",
          "name": "",
          "type": "address"
        }
      ],
      "stateMutability": "view",
      "type": "function"
    },
    {
      "inputs": [],
      "name": "symbol",
      "outputs": [
        {
          "internalType": "string",
          "name": "",
          "type": "string"
        }
      ],
      "stateMutability": "view",
      "type": "function"
    },
    {
      "inputs": [],
      "name": "totalSupply",
      "outputs": [
        {
          "internalType": "uint256",
          "name": "",
          "type": "uint256"
        }
      ],
      "stateMutability": "view",
      "type": "function"
    },
    {
      "inputs": [
        {
          "internalType": "address",
          "name": "_to",
          "type": "address"
        },
        {
          "internalType": "uint256",
          "name": "_value",
          "type": "uint256"
        }
      ],
      "name": "transfer",
      "outputs": [
        {
          "internalType": "bool",
          "name": "success",
          "type": "bool"
        }
      ],
      "stateMutability": "nonpayable",
      "type": "function"
    },
    {
      "inputs": [
        {
          "internalType": "address",
          "name": "from",
          "type": "address"
        },
        {
          "internalType": "address",
          "name": "to",
          "type": "address"
        },
        {
          "internalType": "uint256",
          "name": "amount",
          "type": "uint256"
        }
      ],
      "name": "transferFrom",
      "outputs": [
        {
          "internalType": "bool",
          "name": "",
          "type": "bool"
        }
      ],
      "stateMutability": "nonpayable",
      "type": "function"
    }
  ],
  "bytecode": "0x60806040526012600260006101000a81548160ff021916908360ff1602179055503480156200002d57600080fd5b5060405162001a3f38038062001a3f833981810160405281019062000053919062000309565b8260009081620000649190620005e4565b508160019081620000769190620005e4565b50600260009054906101000a900460ff1660ff16600a6200009891906200084e565b81620000a591906200089f565b600381905550600354600560003373ffffffffffffffffffffffffffffffffffffffff1673ffffffffffffffffffffffffffffffffffffffff1681526020019081526020016000208190555033600460006101000a81548173ffffffffffffffffffffffffffffffffffffffff021916908373ffffffffffffffffffffffffffffffffffffffff160217905550505050620008ea565b6000604051905090565b600080fd5b600080fd5b600080fd5b600080fd5b6000601f19601f8301169050919050565b7f4e487b7100000000000000000000000000000000000000000000000000000000600052604160045260246000fd5b620001a48262000159565b810181811067ffffffffffffffff82111715620001c657620001c56200016a565b5b80604052505050565b6000620001db6200013b565b9050620001e9828262000199565b919050565b600067ffffffffffffffff8211156200020c576200020b6200016a565b5b620002178262000159565b9050602081019050919050565b60005b838110156200024457808201518184015260208101905062000227565b60008484015250505050565b6000620002676200026184620001ee565b620001cf565b90508281526020810184848401111562000286576200028562000154565b5b6200029384828562000224565b509392505050565b600082601f830112620002b357620002b26200014f565b5b8151620002c584826020860162000250565b91505092915050565b6000819050919050565b620002e381620002ce565b8114620002ef57600080fd5b50565b6000815190506200030381620002d8565b92915050565b60008060006060848603121562000325576200032462000145565b5b600084015167ffffffffffffffff8111156200034657620003456200014a565b5b62000354868287016200029b565b935050602084015167ffffffffffffffff8111156200037857620003776200014a565b5b62000386868287016200029b565b92505060406200039986828701620002f2565b9150509250925092565b600081519050919050565b7f4e487b7100000000000000000000000000000000000000000000000000000000600052602260045260246000fd5b60006002820490506001821680620003f657607f821691505b6020821081036200040c576200040b620003ae565b5b50919050565b60008190508160005260206000209050919050565b60006020601f8301049050919050565b600082821b905092915050565b600060088302620004767fffffffffffffffffffffffffffffffffffffffffffffffffffffffffffffffff8262000437565b62000482868362000437565b95508019841693508086168417925050509392505050565b6000819050919050565b6000620004c5620004bf620004b984620002ce565b6200049a565b620002ce565b9050919050565b6000819050919050565b620004e183620004a4565b620004f9620004f082620004cc565b84845462000444565b825550505050565b600090565b6200051062000501565b6200051d818484620004d6565b505050565b5b8181101562000545576200053960008262000506565b60018101905062000523565b5050565b601f82111562000594576200055e8162000412565b620005698462000427565b8101602085101562000579578190505b62000591620005888562000427565b83018262000522565b50505b505050565b600082821c905092915050565b6000620005b96000198460080262000599565b1980831691505092915050565b6000620005d48383620005a6565b9150826002028217905092915050565b620005ef82620003a3565b67ffffffffffffffff8111156200060b576200060a6200016a565b5b620006178254620003dd565b6200062482828562000549565b600060209050601f8311600181146200065c576000841562000647578287015190505b620006538582620005c6565b865550620006c3565b601f1984166200066c8662000412565b60005b8281101562000696578489015182556001820191506020850194506020810190506200066f565b86831015620006b65784890151620006b2601f891682620005a6565b8355505b6001600288020188555050505b505050505050565b7f4e487b7100000000000000000000000000000000000000000000000000000000600052601160045260246000fd5b60008160011c9050919050565b6000808291508390505b60018511156200075957808604811115620007315762000730620006cb565b5b6001851615620007415780820291505b80810290506200075185620006fa565b945062000711565b94509492505050565b60008262000774576001905062000847565b8162000784576000905062000847565b81600181146200079d5760028114620007a857620007de565b600191505062000847565b60ff841115620007bd57620007bc620006cb565b5b8360020a915084821115620007d757620007d6620006cb565b5b5062000847565b5060208310610133831016604e8410600b8410161715620008185782820a905083811115620008125762000811620006cb565b5b62000847565b62000827848484600162000707565b92509050818404811115620008415762000840620006cb565b5b81810290505b9392505050565b60006200085b82620002ce565b91506200086883620002ce565b9250620008977fffffffffffffffffffffffffffffffffffffffffffffffffffffffffffffffff848462000762565b905092915050565b6000620008ac82620002ce565b9150620008b983620002ce565b9250828202620008c981620002ce565b91508282048414831517620008e357620008e2620006cb565b5b5092915050565b61114580620008fa6000396000f3fe608060405234801561001057600080fd5b50600436106100a95760003560e01c806340c10f191161007157806340c10f191461016857806355b6ed5c1461018457806370a08231146101b45780638da5cb5b146101e457806395d89b4114610202578063a9059cbb14610220576100a9565b806306fdde03146100ae578063095ea7b3146100cc57806318160ddd146100fc57806323b872dd1461011a578063313ce5671461014a575b600080fd5b6100b6610250565b6040516100c39190610ad4565b60405180910390f35b6100e660048036038101906100e19190610b8f565b6102de565b6040516100f39190610bea565b60405180910390f35b6101046102fa565b6040516101119190610c14565b60405180910390f35b610134600480360381019061012f9190610c2f565b610300565b6040516101419190610bea565b60405180910390f35b610152610328565b60405161015f9190610c9e565b60405180910390f35b610182600480360381019061017d9190610b8f565b61033b565b005b61019e60048036038101906101999190610cb9565b61054c565b6040516101ab9190610c14565b60405180910390f35b6101ce60048036038101906101c99190610cf9565b610571565b6040516101db9190610c14565b60405180910390f35b6101ec610589565b6040516101f99190610d35565b60405180910390f35b61020a6105af565b6040516102179190610ad4565b60405180910390f35b61023a60048036038101906102359190610b8f565b61063d565b6040516102479190610bea565b60405180910390f35b6000805461025d90610d7f565b80601f016020809104026020016040519081016040528092919081815260200182805461028990610d7f565b80156102d65780601f106102ab576101008083540402835291602001916102d6565b820191906000526020600020905b8154815290600101906020018083116102b957829003601f168201915b505050505081565b6000803390506102ef8185856107a6565b600191505092915050565b60035481565b600080339050610311858285610945565b61031b848461063d565b5060019150509392505050565b600260009054906101000a900460ff1681565b600460009054906101000a900473ffffffffffffffffffffffffffffffffffffffff1673ffffffffffffffffffffffffffffffffffffffff163373ffffffffffffffffffffffffffffffffffffffff16146103cb576040517f08c379a00000000000000000000000000000000000000000000000000000000081526004016103c290610dfc565b60405180910390fd5b600073ffffffffffffffffffffffffffffffffffffffff168273ffffffffffffffffffffffffffffffffffffffff160361043a576040517f08c379a000000000000000000000000000000000000000000000000000000000815260040161043190610e68565b60405180910390fd5b806003600082825461044c9190610eb7565b9250508190555080600560008473ffffffffffffffffffffffffffffffffffffffff1673ffffffffffffffffffffffffffffffffffffffff16815260200190815260200160002060008282546104a29190610eb7565b925050819055507f0f6798a560793a54c3bcfe86a93cde1e73087d944c0ea20544137d412139688582826040516104da929190610eeb565b60405180910390a18173ffffffffffffffffffffffffffffffffffffffff16600073ffffffffffffffffffffffffffffffffffffffff167fddf252ad1be2c89b69c2b068fc378daa952ba7f163c4a11628f55a4df523b3ef836040516105409190610c14565b60405180910390a35050565b6006602052816000526040600020602052806000526040600020600091509150505481565b60056020528060005260406000206000915090505481565b600460009054906101000a900473ffffffffffffffffffffffffffffffffffffffff1681565b600180546105bc90610d7f565b80601f01602080910402602001604051908101604052809291908181526020018280546105e890610d7f565b80156106355780601f1061060a57610100808354040283529160200191610635565b820191906000526020600020905b81548152906001019060200180831161061857829003601f168201915b505050505081565b600081600560003373ffffffffffffffffffffffffffffffffffffffff1673ffffffffffffffffffffffffffffffffffffffff16815260200190815260200160002054101561068b57600080fd5b81600560003373ffffffffffffffffffffffffffffffffffffffff1673ffffffffffffffffffffffffffffffffffffffff16815260200190815260200160002060008282546106da9190610f14565b9250508190555081600560008573ffffffffffffffffffffffffffffffffffffffff1673ffffffffffffffffffffffffffffffffffffffff16815260200190815260200160002060008282546107309190610eb7565b925050819055508273ffffffffffffffffffffffffffffffffffffffff163373ffffffffffffffffffffffffffffffffffffffff167fddf252ad1be2c89b69c2b068fc378daa952ba7f163c4a11628f55a4df523b3ef846040516107949190610c14565b60405180910390a36001905092915050565b600073ffffffffffffffffffffffffffffffffffffffff168373ffffffffffffffffffffffffffffffffffffffff1603610815576040517f08c379a000000000000000000000000000000000000000000000000000000000815260040161080c90610fba565b60405180910390fd5b600073ffffffffffffffffffffffffffffffffffffffff168273ffffffffffffffffffffffffffffffffffffffff1603610884576040517f08c379a000000000000000000000000000000000000000000000000000000000815260040161087b9061104c565b60405180910390fd5b80600660008573ffffffffffffffffffffffffffffffffffffffff1673ffffffffffffffffffffffffffffffffffffffff16815260200190815260200160002060008473ffffffffffffffffffffffffffffffffffffffff1673ffffffffffffffffffffffffffffffffffffffff168152602001908152602001600020819055507f8c5be1e5ebec7d5bd14f71427d1e84f3dd0314c0f7b2291e5b200ac8c7c3b9258383836040516109389392919061106c565b60405180910390a1505050565b6000600660008573ffffffffffffffffffffffffffffffffffffffff1673ffffffffffffffffffffffffffffffffffffffff16815260200190815260200160002060008473ffffffffffffffffffffffffffffffffffffffff1673ffffffffffffffffffffffffffffffffffffffff1681526020019081526020016000205490507fffffffffffffffffffffffffffffffffffffffffffffffffffffffffffffffff8114610a3e5781811015610a30576040517f08c379a0000000000000000000000000000000000000000000000000000000008152600401610a27906110ef565b60405180910390fd5b610a3d84848484036107a6565b5b50505050565b600081519050919050565b600082825260208201905092915050565b60005b83811015610a7e578082015181840152602081019050610a63565b60008484015250505050565b6000601f19601f8301169050919050565b6000610aa682610a44565b610ab08185610a4f565b9350610ac0818560208601610a60565b610ac981610a8a565b840191505092915050565b60006020820190508181036000830152610aee8184610a9b565b905092915050565b600080fd5b600073ffffffffffffffffffffffffffffffffffffffff82169050919050565b6000610b2682610afb565b9050919050565b610b3681610b1b565b8114610b4157600080fd5b50565b600081359050610b5381610b2d565b92915050565b6000819050919050565b610b6c81610b59565b8114610b7757600080fd5b50565b600081359050610b8981610b63565b92915050565b60008060408385031215610ba657610ba5610af6565b5b6000610bb485828601610b44565b9250506020610bc585828601610b7a565b9150509250929050565b60008115159050919050565b610be481610bcf565b82525050565b6000602082019050610bff6000830184610bdb565b92915050565b610c0e81610b59565b82525050565b6000602082019050610c296000830184610c05565b92915050565b600080600060608486031215610c4857610c47610af6565b5b6000610c5686828701610b44565b9350506020610c6786828701610b44565b9250506040610c7886828701610b7a565b9150509250925092565b600060ff82169050919050565b610c9881610c82565b82525050565b6000602082019050610cb36000830184610c8f565b92915050565b60008060408385031215610cd057610ccf610af6565b5b6000610cde85828601610b44565b9250506020610cef85828601610b44565b9150509250929050565b600060208284031215610d0f57610d0e610af6565b5b6000610d1d84828501610b44565b91505092915050565b610d2f81610b1b565b82525050565b6000602082019050610d4a6000830184610d26565b92915050565b7f4e487b7100000000000000000000000000000000000000000000000000000000600052602260045260246000fd5b60006002820490506001821680610d9757607f821691505b602082108103610daa57610da9610d50565b5b50919050565b7f4f776e61626c653a2063616c6c6572206973206e6f7420746865206f776e6572600082015250565b6000610de6602083610a4f565b9150610df182610db0565b602082019050919050565b60006020820190508181036000830152610e1581610dd9565b9050919050565b7f496e76616c696420616464726573730000000000000000000000000000000000600082015250565b6000610e52600f83610a4f565b9150610e5d82610e1c565b602082019050919050565b60006020820190508181036000830152610e8181610e45565b9050919050565b7f4e487b7100000000000000000000000000000000000000000000000000000000600052601160045260246000fd5b6000610ec282610b59565b9150610ecd83610b59565b9250828201905080821115610ee557610ee4610e88565b5b92915050565b6000604082019050610f006000830185610d26565b610f0d6020830184610c05565b9392505050565b6000610f1f82610b59565b9150610f2a83610b59565b9250828203905081811115610f4257610f41610e88565b5b92915050565b7f45524332303a20617070726f76652066726f6d20746865207a65726f2061646460008201527f7265737300000000000000000000000000000000000000000000000000000000602082015250565b6000610fa4602483610a4f565b9150610faf82610f48565b604082019050919050565b60006020820190508181036000830152610fd381610f97565b9050919050565b7f45524332303a20617070726f766520746f20746865207a65726f20616464726560008201527f7373000000000000000000000000000000000000000000000000000000000000602082015250565b6000611036602283610a4f565b915061104182610fda565b604082019050919050565b6000602082019050818103600083015261106581611029565b9050919050565b60006060820190506110816000830186610d26565b61108e6020830185610d26565b61109b6040830184610c05565b949350505050565b7f45524332303a20696e73756666696369656e7420616c6c6f77616e6365000000600082015250565b60006110d9601d83610a4f565b91506110e4826110a3565b602082019050919050565b60006020820190508181036000830152611108816110cc565b905091905056fea2646970667358221220dfe358f4646c6abc3b8d946bd1df6dd34164c16b2e2ffcfde2e778bb7676fd8b64736f6c63430008180033",
  "linkReferences": {},
  "deployedLinkReferences": {}
}