{
  "_format": "hh-sol-artifact-1",
  "contractName": "Vote",
  "sourceName": "contracts/Vote.sol",
  "abi": [
    {
      "inputs": [
        {
          "internalType": "string",
          "name": "_name",
          "type": "string"
        }
      ],
      "name": "createProposal",
      "outputs": [],
      "stateMutability": "nonpayable",
      "type": "function"
    },
    {
      "inputs": [
        {
          "internalType": "uint256",
          "name": "_proposalIndex",
          "type": "uint256"
        }
      ],
      "name": "getProposal",
      "outputs": [
        {
          "internalType": "string",
          "name": "",
          "type": "string"
        },
        {
          "internalType": "uint256",
          "name": "",
          "type": "uint256"
        }
      ],
      "stateMutability": "view",
      "type": "function"
    },
    {
      "inputs": [],
      "name": "getProposalCount",
      "outputs": [
        {
          "internalType": "uint256",
          "name": "",
          "type": "uint256"
        }
      ],
      "stateMutability": "view",
      "type": "function"
    },
    {
      "inputs": [
        {
          "internalType": "address",
          "name": "",
          "type": "address"
        },
        {
          "internalType": "uint256",
          "name": "",
          "type": "uint256"
        }
      ],
      "name": "hasVoted",
      "outputs": [
        {
          "internalType": "bool",
          "name": "",
          "type": "bool"
        }
      ],
      "stateMutability": "view",
      "type": "function"
    },
    {
      "inputs": [
        {
          "internalType": "uint256",
          "name": "",
          "type": "uint256"
        }
      ],
      "name": "proposals",
      "outputs": [
        {
          "internalType": "string",
          "name": "name",
          "type": "string"
        },
        {
          "internalType": "uint256",
          "name": "voteCount",
          "type": "uint256"
        }
      ],
      "stateMutability": "view",
      "type": "function"
    },
    {
      "inputs": [
        {
          "internalType": "uint256",
          "name": "_proposalIndex",
          "type": "uint256"
        }
      ],
      "name": "vote",
      "outputs": [],
      "stateMutability": "nonpayable",
      "type": "function"
    }
  ],
  "bytecode": "0x608060405234801561001057600080fd5b50610dcc806100206000396000f3fe608060405234801561001057600080fd5b50600436106100625760003560e01c80630121b93f14610067578063013cf08b1461008357806342545825146100b457806349c2a1a6146100e4578063c08cc02d14610100578063c7f758a81461011e575b600080fd5b610081600480360381019061007c91906105ab565b61014f565b005b61009d600480360381019061009891906105ab565b6102da565b6040516100ab929190610677565b60405180910390f35b6100ce60048036038101906100c99190610705565b610396565b6040516100db9190610760565b60405180910390f35b6100fe60048036038101906100f991906108b0565b6103c5565b005b61010861042b565b60405161011591906108f9565b60405180910390f35b610138600480360381019061013391906105ab565b610437565b604051610146929190610677565b60405180910390f35b6000805490508110610196576040517f08c379a000000000000000000000000000000000000000000000000000000000815260040161018d90610960565b60405180910390fd5b600160003373ffffffffffffffffffffffffffffffffffffffff1673ffffffffffffffffffffffffffffffffffffffff168152602001908152602001600020600082815260200190815260200160002060009054906101000a900460ff1615610234576040517f08c379a000000000000000000000000000000000000000000000000000000000815260040161022b906109f2565b60405180910390fd5b6000818154811061024857610247610a12565b5b9060005260206000209060020201600101600081548092919061026a90610a70565b919050555060018060003373ffffffffffffffffffffffffffffffffffffffff1673ffffffffffffffffffffffffffffffffffffffff168152602001908152602001600020600083815260200190815260200160002060006101000a81548160ff02191690831515021790555050565b600081815481106102ea57600080fd5b906000526020600020906002020160009150905080600001805461030d90610ae7565b80601f016020809104026020016040519081016040528092919081815260200182805461033990610ae7565b80156103865780601f1061035b57610100808354040283529160200191610386565b820191906000526020600020905b81548152906001019060200180831161036957829003601f168201915b5050505050908060010154905082565b60016020528160005260406000206020528060005260406000206000915091509054906101000a900460ff1681565b6000604051806040016040528083815260200160008152509080600181540180825580915050600190039060005260206000209060020201600090919091909150600082015181600001908161041b9190610cc4565b5060208201518160010155505050565b60008080549050905090565b6060600080805490508310610481576040517f08c379a000000000000000000000000000000000000000000000000000000000815260040161047890610960565b60405180910390fd5b6000838154811061049557610494610a12565b5b9060005260206000209060020201600001600084815481106104ba576104b9610a12565b5b9060005260206000209060020201600101548180546104d890610ae7565b80601f016020809104026020016040519081016040528092919081815260200182805461050490610ae7565b80156105515780601f1061052657610100808354040283529160200191610551565b820191906000526020600020905b81548152906001019060200180831161053457829003601f168201915b5050505050915091509150915091565b6000604051905090565b600080fd5b600080fd5b6000819050919050565b61058881610575565b811461059357600080fd5b50565b6000813590506105a58161057f565b92915050565b6000602082840312156105c1576105c061056b565b5b60006105cf84828501610596565b91505092915050565b600081519050919050565b600082825260208201905092915050565b60005b838110156106125780820151818401526020810190506105f7565b60008484015250505050565b6000601f19601f8301169050919050565b600061063a826105d8565b61064481856105e3565b93506106548185602086016105f4565b61065d8161061e565b840191505092915050565b61067181610575565b82525050565b60006040820190508181036000830152610691818561062f565b90506106a06020830184610668565b9392505050565b600073ffffffffffffffffffffffffffffffffffffffff82169050919050565b60006106d2826106a7565b9050919050565b6106e2816106c7565b81146106ed57600080fd5b50565b6000813590506106ff816106d9565b92915050565b6000806040838503121561071c5761071b61056b565b5b600061072a858286016106f0565b925050602061073b85828601610596565b9150509250929050565b60008115159050919050565b61075a81610745565b82525050565b60006020820190506107756000830184610751565b92915050565b600080fd5b600080fd5b7f4e487b7100000000000000000000000000000000000000000000000000000000600052604160045260246000fd5b6107bd8261061e565b810181811067ffffffffffffffff821117156107dc576107db610785565b5b80604052505050565b60006107ef610561565b90506107fb82826107b4565b919050565b600067ffffffffffffffff82111561081b5761081a610785565b5b6108248261061e565b9050602081019050919050565b82818337600083830152505050565b600061085361084e84610800565b6107e5565b90508281526020810184848401111561086f5761086e610780565b5b61087a848285610831565b509392505050565b600082601f8301126108975761089661077b565b5b81356108a7848260208601610840565b91505092915050565b6000602082840312156108c6576108c561056b565b5b600082013567ffffffffffffffff8111156108e4576108e3610570565b5b6108f084828501610882565b91505092915050565b600060208201905061090e6000830184610668565b92915050565b7f496e76616c69642070726f706f73616c20696e64657800000000000000000000600082015250565b600061094a6016836105e3565b915061095582610914565b602082019050919050565b600060208201905081810360008301526109798161093d565b9050919050565b7f596f75206861766520616c726561647920766f74656420666f7220746869732060008201527f70726f706f73616c000000000000000000000000000000000000000000000000602082015250565b60006109dc6028836105e3565b91506109e782610980565b604082019050919050565b60006020820190508181036000830152610a0b816109cf565b9050919050565b7f4e487b7100000000000000000000000000000000000000000000000000000000600052603260045260246000fd5b7f4e487b7100000000000000000000000000000000000000000000000000000000600052601160045260246000fd5b6000610a7b82610575565b91507fffffffffffffffffffffffffffffffffffffffffffffffffffffffffffffffff8203610aad57610aac610a41565b5b600182019050919050565b7f4e487b7100000000000000000000000000000000000000000000000000000000600052602260045260246000fd5b60006002820490506001821680610aff57607f821691505b602082108103610b1257610b11610ab8565b5b50919050565b60008190508160005260206000209050919050565b60006020601f8301049050919050565b600082821b905092915050565b600060088302610b7a7fffffffffffffffffffffffffffffffffffffffffffffffffffffffffffffffff82610b3d565b610b848683610b3d565b95508019841693508086168417925050509392505050565b6000819050919050565b6000610bc1610bbc610bb784610575565b610b9c565b610575565b9050919050565b6000819050919050565b610bdb83610ba6565b610bef610be782610bc8565b848454610b4a565b825550505050565b600090565b610c04610bf7565b610c0f818484610bd2565b505050565b5b81811015610c3357610c28600082610bfc565b600181019050610c15565b5050565b601f821115610c7857610c4981610b18565b610c5284610b2d565b81016020851015610c61578190505b610c75610c6d85610b2d565b830182610c14565b50505b505050565b600082821c905092915050565b6000610c9b60001984600802610c7d565b1980831691505092915050565b6000610cb48383610c8a565b9150826002028217905092915050565b610ccd826105d8565b67ffffffffffffffff811115610ce657610ce5610785565b5b610cf08254610ae7565b610cfb828285610c37565b600060209050601f831160018114610d2e5760008415610d1c578287015190505b610d268582610ca8565b865550610d8e565b601f198416610d3c86610b18565b60005b82811015610d6457848901518255600182019150602085019450602081019050610d3f565b86831015610d815784890151610d7d601f891682610c8a565b8355505b6001600288020188555050505b50505050505056fea2646970667358221220fffe923bcb58a014e0c8fb07df15695ad92758a4097c601f896fadb96494b1a164736f6c63430008180033",
  "linkReferences": {},
  "deployedLinkReferences": {}
}